:100000000C947C000C94A4000C94A4000C94A40008
:100010000C94A4000C94A4000C94A4000C94A400D0
:100020000C94A4000C94A4000C94A4000C9433141D
:100030000C94A4000C94A4000C94A4000C94A400B0
:100040000C9491130C94A4000C9401140C94DB13E5
:100050000C94A4000C94A4000C94A4000C94A40090
:100060000C94A4000C94A4004E414E494E4954599E
:10007000494E46CDCCCC3D0AD7233C17B7D1387773
:10008000CC2B329595E6241FB14F0A000020410089
:1000900000C84200401C4620BCBE4CCA1B0E5AAED3
:1000A000C59D7400000000240027002A0000000005
:1000B00000250028002B00040404040404040402A6
:1000C00002020202020303030303030102040810F5
:1000D00020408001020408102001020408102000C2
:1000E00000000800020100000304070000000000F7
:1000F000000000000A15471811241FBECFEFD8E0FA
:10010000DEBFCDBF13E0A0E0B1E0E8EAF2E402C058
:1001100005900D92A831B107D9F725E0A8E1B3E029
:1001200001C01D92A839B207E1F710E0CBE7D0E09B
:1001300004C02197FE010E94EF1BCA37D107C9F7FF
:100140000E945D150C9447210C94000090E0FC0186
:10015000E152FF4F2491FC01E553FF4F3491FC0124
:10016000E954FF4FE491EE23C9F0222339F0233004
:1001700001F1A8F4213019F1223029F1F0E0EE0F5D
:10018000FF1FE355FF4FA591B4918FB7F894EC9101
:10019000611126C030953E233C938FBF08952730D0
:1001A000A9F02830C9F0243049F7809180008F7D74
:1001B00003C0809180008F7780938000DFCF84B56B
:1001C0008F7784BDDBCF84B58F7DFBCF8091B0006E
:1001D0008F778093B000D2CF8091B0008F7DF9CF20
:1001E0003E2BDACF3FB7F8948091480390914903B2
:1001F000A0914A03B0914B0326B5A89B05C02F3FA1
:1002000019F00196A11DB11D3FBFBA2FA92F982F3C
:100210008827BC01CD01620F711D811D911D42E037
:10022000660F771F881F991F4A95D1F70895AF92DF
:10023000BF92CF92DF92EF92FF920F931F93CF93D3
:10024000DF936C017B018B01040F151FEB015E0135
:10025000AE18BF08C017D10759F06991D601ED91CA
:10026000FC910190F081E02DC6010995892B79F769
:10027000C501DF91CF911F910F91FF90EF90DF901B
:10028000CF90BF90AF900895FC01538D448D252FE2
:1002900030E0842F90E0821B930B541710F0CF9620
:1002A000089501970895FC01918D828D981761F052
:1002B000A28DAE0FBF2FB11D5D968C91928D9F5F69
:1002C0009F73928F90E008958FEF9FEF0895FC0148
:1002D000918D828D981731F0828DE80FF11D858DFB
:1002E00090E008958FEF9FEF0895FC01918D228D8E
:1002F000892F90E0805C9F4F821B91098F73992713
:1003000008958CE493E00E94750121E0892B09F4A3
:1003100020E0822F089580E090E0892B29F00E9450
:10032000810181110C9400000895FC01A48DA80F97
:10033000B92FB11DA35ABF4F2C91848D90E0019627
:100340008F739927848FA689B7892C93A089B18947
:100350008C91837080648C93938D848D981306C0E8
:100360000288F389E02D80818F7D80830895EF924C
:10037000FF920F931F93CF93DF93EC0181E0888F5F
:100380009B8D8C8D98131AC0E889F989808185FF2F
:1003900015C09FB7F894EE89FF896083E889F989D1
:1003A00080818370806480839FBF81E090E0DF91D3
:1003B000CF911F910F91FF90EF900895F62E0B8D26
:1003C00010E00F5F1F4F0F731127E02E8C8D8E11E1
:1003D0000CC00FB607FCFACFE889F989808185FF48
:1003E000F5CFCE010E949501F1CFEB8DEC0FFD2FE3
:1003F000F11DE35AFF4FF0829FB7F8940B8FEA8903
:10040000FB8980818062CFCFCF93DF93EC01888D11
:100410008823B9F0AA89BB89E889F9898C9185FD7F
:1004200003C0808186FD0DC00FB607FCF7CF8C910D
:1004300085FFF2CF808185FFEDCFCE010E9495012F
:10044000E9CFDF91CF910895CF92DF92EF92FF92A3
:10045000CF93DF93EC01603282E07807CCF5653B07
:10046000710514F064EB70E0898128E830E0281B06
:10047000310987FD3395220F331F220F331F690186
:10048000330FEE08FF088A8128E532E0281B310986
:1004900087FD3395220F331F220F331F032E000CCD
:1004A000440B550B2C193D094E095F09DB0177FF01
:1004B00002C0B0E0A0E00E94731B24EB30E040E0FB
:1004C00050E00E94491BC20ED31EE41EF51EB60169
:1004D000E881EC3070F5298188E890E0821B910971
:1004E00027FD9395880F991F880F991F6817790723
:1004F0007CF02A8188E592E0821B910927FD939583
:10050000880F991F880F991F681779070CF4CB0182
:100510000297880F991F4FB7F8942E2F30E0F901FA
:10052000EE0FFF1FE20FF31FE65EFC4F9283818305
:100530004FBFDF91CF91FF90EF90DF90CF90089564
:10054000CF93DF93DC018C918C3008F06DC0CB0130
:10055000FB01E553FF4F249189549F4FFC01849187
:10056000882399F090E0880F991FFC01ED55FF4F0B
:10057000C591D491FC01E355FF4F859194918FB7BC
:10058000F894E881E22BE8838FBF8C91282F30E02C
:10059000F901EE0FFF1FE20FF31FE65EFC4F962FEF
:1005A0009F736081607C692B608311961C92119708
:1005B00012961C9212972CE0622F0E94E31B829FDE
:1005C000B001112430E020E0AB01420F531FFA01CB
:1005D000EE0FFF1FE40FF51FE65EFC4F908196FDC6
:1005E00016C02F5F3F4F2C30310571F781110FC0BE
:1005F0001092800082E0809381001092850010921A
:100600008400B19A80916F00826080936F00EC91BA
:100610008E2F90E0FC01EE0FFF1FE80FF91FE65E42
:10062000FC4F8081806480838C91DF91CF9108950D
:10063000E0910201F09103010994FC01892B61F022
:10064000408151814115510501F1828193812481BD
:1006500035812817390730F0CF0108952F5F3F4FBC
:1006600035832483248135812817390738F4DA014A
:10067000A20FB31F6C91613288F3EECF82179307FC
:1006800059F7019795838483E7CFF0E0E0E0E4CF6A
:10069000FC0150E040E090E080E0219130ED320F2D
:1006A0003A3088F4C097820F911D4330510529F0EC
:1006B00024E0880F991F2A95E1F74F5F5F4F443080
:1006C000510559F708953FEB320F363010F4C797B4
:1006D000EACF3FE9320F363018F487559109E3CF5E
:1006E00090E080E008952F923F924F925F926F9238
:1006F0007F928F929F92AF92BF92CF92DF92EF92B2
:10070000FF920F931F93CF93DF933C014B01DB01CB
:100710004D915C9111971496ED91FC9115978F0175
:100720000F5F1F4F040F151FE40FF51F80818232EA
:1007300009F087C012962D913C91680170E060E04D
:10074000C601841B950B8217930708F07AC0D60167
:100750008C91823209F043C0C6018E1B9F0B861B11
:10076000970BD4011896ED91FC91019609955C01C7
:10077000009709F466C0EC01EDE05E2EF9E04F2E23
:10078000AAE03A2EB8E02B2E0C151D05C8F11882F0
:1007900080E190E0F30197838683B186A086D4013F
:1007A0008D919C91C81AD90ABFEFCB1ADB0AF401CC
:1007B000D582C48281E090E0DF91CF911F910F91AB
:1007C000FF90EF90DF90CF90BF90AF909F908F9071
:1007D0007F906F905F904F903F902F9008958C3551
:1007E00059F4BFEFCB1ADB0AC601841B950B8217A5
:1007F000930738F56F5F7F4F8FEFC81AD80AA0CFE5
:10080000F80180818C3529F00F5F1F4F8883219676
:10081000BBCF9601201B310B1216130664F48181A5
:10082000863609F482C028F58F3209F485C0B0F409
:10083000823209F481C0D4011A96ED91FC91C50170
:1008400009950115110539F0F40180819181081B8A
:10085000190B1583048390E080E0AECF8C3509F44A
:100860006BC0823641F72882219622E0020F111DCB
:100870008BCF823709F45CC020F48E36E1F63882E3
:10088000F3CF843709F456C08537A9F626303105F1
:1008900094F2C80102960E9448037C019C5D811578
:1008A000E4E09E0740F29C5F8115944008F046C04A
:1008B000C80106969601281B390B263031050CF429
:1008C000BACFD80116968C9116978C3509F0B3CF14
:1008D00017968C91853709F0AECFC80108960E9413
:1008E00048039C013C5D2115344008F0A4CFFE2C48
:1008F000EE24FF0CFF0C93708E299F29B0E0A0E03E
:1009000011962CE040EF34E05FEF530FE52FF0E05D
:100910003196EC0FFD1F682F511126C0313089F13F
:10092000482B4883C30FD11DA1CFBCE0B8839CCF17
:1009300058829ACF488298CF888396CFC701B0E07B
:10094000A0E026E040E031E080389105A105B10546
:10095000D8F240EC32E08115F8E09F07A105B1051F
:1009600098F240EE33E0D0CF682F6F7360686293E7
:1009700066E0B695A795979587956A95D1F75150FA
:10098000CACF6F776883CECF0F931F93CF93DF9338
:10099000EC01209729F4DF91CF911F910F910895D9
:1009A000088119818E819F8190FD06C08C819D8177
:1009B000009711F00E94C4048E819F8190FD09C0B0
:1009C00088859985009729F0E0910201F091030153
:1009D00009958E819F8191FD09C088899989009729
:1009E00029F0E0910201F09103010995E0910201E3
:1009F000F0910301CE010995E801CBCFCF93DF93AE
:100A0000FB01DA01009709F449C0109709F446C0C8
:100A1000309709F443C04617570759F1C081D18177
:100A20001196DC93CE932281338113963C932E93BF
:100A30001297209711F05B834A83EC012C813D8152
:100A4000E217F307C9F422813381E217F30739F47F
:100A50000A2E1B2E13961C920E9211241297EC0153
:100A6000BD83AC831182108213821282CF010E9457
:100A7000C40481E090E014C012968D919C9113976C
:100A8000009719F0EC01B983A8838D919C9111977F
:100A9000892B41F7E901BB83AA83E4CF90E080E092
:100AA000DF91CF910895DC011296ED91FC91309782
:100AB00031F08681803119F480859185089590E028
:100AC00080E00895FC0182E291E09183808382813D
:100AD0009381009731F024813581232B11F40C94FC
:100AE000C40408950895CF93DF93EC018881998120
:100AF000009711F00E94391D198218821D821C82F4
:100B00001B821A82DF91CF910895FC01808191812F
:100B1000009711F00C94391D0895CF93DF93EC01E9
:100B20000E946205CE01DF91CF910C94391D0C9487
:100B3000391D0F931F93CF93DF93EC018881998127
:100B4000009759F02A813B812617370730F081E062
:100B5000DF91CF911F910F9108958B016F5F7F4FB0
:100B60000E94C21D009759F0998388831B830A83D2
:100B70002C813D81232B59F7FC011082E8CF80E0C6
:100B8000E7CFEF92FF920F931F93CF93DF93EC0188
:100B9000FB01E080F180E114F10411F10481158181
:100BA00001151105A9F08C819D81080F191FB8014D
:100BB000CE010E949905882399F0288139818C8182
:100BC0009D81B701820F931F0E94911E1D830C838C
:100BD000CE01DF91CF911F910F91FF90EF9008957B
:100BE000CE010E947305F4CFEF92FF920F931F93F3
:100BF000CF93DF93EC017B018A01BA010E94990532
:100C000081110BC0CE010E947305CE01DF91CF91FF
:100C10001F910F91FF90EF9008951D830C83B701F2
:100C2000888199810E94911EF0CFFC0182E190E0C1
:100C30000995009729F022E1FC0111922A95E9F724
:100C4000089580910001909101010E94150600977E
:100C500029F024E030E0FC01378326830895EF92E9
:100C6000FF920F931F93CF93DF93EC01892B89F1B0
:100C70000881198101151105B1F08A819B810097C6
:100C800029F02C813D812817390718F577FD21C0FF
:100C90002C813D816F5F7F4F620F731F861797070F
:100CA00050F0020F131FC801DF91CF911F910F91D8
:100CB000FF90EF90089588859985892B51F46115EF
:100CC00080E4780748F0EE24EA948FE7F82E77FF67
:100CD00006C010E000E0E7CF7B01EE0CFF1CE889C6
:100CE000F989309781F0B701C80109958C01892BEA
:100CF00021F5EE85FF858881998109951B821A82ED
:100D000019821882D0CFEC85FD85C70109958C0129
:100D1000888199810115110519F4EE85FF85EDCFC4
:100D20004C815D814F5F5F4FBC01C8010E947F1EF7
:100D3000EE85FF85888199810995FB82EA82198376
:100D400008838C819D81080F191FADCFEF92FF9210
:100D50000F931F93CF93DF9310E000E00097A9F06B
:100D6000EC01FC0101900020E9F77F01E81AF90A83
:100D7000E0910001F0910101C70109958C010097F4
:100D800021F0A701BE010E947F1EC801DF91CF9113
:100D90001F910F91FF90EF900895EF92FF920F93A4
:100DA0001F93CF93DF93009719F4D0E0C0E033C0D6
:100DB0008C0180910001909101010E941506EC01C7
:100DC000892B99F3F801868197819E7F9F838E837B
:100DD000828593859B878A8784859585A685B78537
:100DE0008C879D87AE87BF87808591850097D9F4D2
:100DF000F80180899189009701F5F801E480F58078
:100E000010E000E0E114F10411F5EC81FD81309770
:100E100011F013830283CE01DF91CF911F910F91C7
:100E2000FF90EF9008950E94A60699878887892BE6
:100E3000F9F6CE010E94C404B8CF2681378131FF74
:100E40000E94A606998B888B892BB9F6F2CFC70131
:100E50000E94CD06009769F30115110559F0F801BC
:100E600091838083FC0113830283F701E080F1808A
:100E70008C01C8CF9D838C83F8CFCF93DF93EC0197
:100E800082E291E099838883FB01828193810E94B1
:100E9000CD069B838A831D821C82DF91CF910895AA
:100EA000FC01118210821382128215821482611554
:100EB000710551F0FB0101900020E9F73197AF0176
:100EC000461B570B0C94F4050895CF93DF93EC0168
:100ED000DB011296ED91FC91309731F0268137813C
:100EE000C9019927009749F460E371E0CE010E949F
:100EF0005007CE01DF91CF910895237033276AE325
:100F000071E0232B99F762E471E08430910571F36D
:100F100067EB71E08830910549F367E471E0803157
:100F2000910521F36EE471E080329105F9F264E5F8
:100F300071E080349105D1F26BE571E0D7CFFB0110
:100F400001900020E9F73197AF01461B570BDC01F8
:100F5000ED91FC910280F381E02D09948F929F9294
:100F6000AF92BF92CF92DF92EF92FF92CF93DF9337
:100F7000CDB7DEB7A1970FB6F894DEBF0FBECDBFD9
:100F80007B012091F3033091F40344E0220F331FDF
:100F90004A95E1F7BC01C9018B509C4F0E94911EFC
:100FA0006091F3037091F403FB01EE0FFF1FEB5808
:100FB000FB4FF182E082E4E0660F771FEA95E1F7EC
:100FC0006B507C4F8CE493E00E949F0763E671E0D6
:100FD0008CE493E00E949F07C090F303D090F40349
:100FE0000D2C000CEE08FF08F7FE4CC06DE28CE4FF
:100FF00093E00E94B70122273327A9012C193D094C
:101000004E095F0919A2CE0181967C019AE0892ED2
:10101000912CA12CB12CCA01B901A50194010E9407
:10102000B21B605DF70162937F0121153105410517
:10103000510589F7E114F10429F0B7018CE493E03C
:101040000E949F076DE871E08CE493E00E949F0787
:101050008091F3039091F40301969093F4038093AD
:10106000F303A1960FB6F894DEBF0FBECDBFDF919C
:10107000CF91FF90EF90DF90CF90BF90AF909F9077
:101080008F900895A701960119A2CE0181967C0147
:101090008AE0882E912CA12CB12CCA01B901A5019E
:1010A00094010E94B21B605DF70162937F012115DC
:1010B00031054105510589F7BDCFCF93DF93EC0191
:1010C000892B99F0A881B981109779F08C819D8145
:1010D000A80FB91FFD0101900020E9F73197EA1B25
:1010E000FB0BE80FF91FFD83EC83DF91CF9108958F
:1010F000DC011296ED91FC91309709F18681978180
:1011000099278031910561F40088F189E02DDF0194
:101110000D900020E9F7CD0101978E1B9F0B0895DC
:10112000809769F40480F581E02D90E080E03097AD
:1011300009F4089501960190F081E02DF8CF8FEF2A
:101140009FEF08950F931F93CF93DF930097E9F0DC
:1011500061157105D1F08B01FC01C481D581209707
:1011600051F0688979896115710579F0C8010E948B
:10117000881E892B31F4CE01DF91CF911F910F9101
:1011800008950990D881C02DEACFD0E0C0E0F3CF18
:10119000EF92FF920F931F93CF93DF93FC01AB016C
:1011A000628173815383428361157105D9F1048192
:1011B000158101151105E9F1F801868197819927BB
:1011C0008034910569F54115510561F1FB01E08815
:1011D000F188E114F10431F1EA018E819F8191FDE2
:1011E00006C088899989009711F00E941803C701E9
:1011F0000E94A606998B888B8E819F819D7F9F83FD
:101200008E83B701C8010E94A208AE01BC01C801CB
:10121000DF91CF911F910F91FF90EF900C94FE04FE
:101220008097A9F3DF91CF911F910F91FF90EF90DD
:101230000895CB01DF91CF911F910F91FF90EF9017
:101240000C94C404EF92FF920F931F93CF93DF93FC
:101250008C01EB017A01EA81FB81309719F08681DC
:10126000803299F080910001909101010E94150651
:10127000009739F020E230E0DC0117963C932E9382
:101280001697BC01CE010E94C808EA81FB81C70104
:10129000309729F10480F581E02D309711F1892BE9
:1012A000C1F48A819B8122E231E0D80111963C93FE
:1012B0002E931396FC93EE93129715969C938E9310
:1012C0001497C801DF91CF911F910F91FF90EF907C
:1012D00008950190F081E02D90E080E0DECFF0E015
:1012E000E0E0AA81BB81109759F014960D90BC9153
:1012F000A02D90E080E01097F1F4E816F9068CF24A
:101300000E942106FC01009761F3AA81BB8110971E
:1013100041F3A817B90729F314968D919C9115975D
:10132000009771F41596FC93EE931497F383E28380
:1013300011821082D6CF01960D90BC91A02DDBCFEB
:10134000DC0112962D913C912115310551F2D90104
:10135000ED93FC9333832283DC011396FC93EE938D
:101360001297BFCFEF92FF920F931F93CF93DF930C
:101370008C017B0180910001909101010E94150672
:10138000EC01892B81F080E190E09F838E83C7017F
:101390000E94A60699878887892B29F4CE010E948E
:1013A000C404D0E0C0E0BE01C801DF91CF911F911D
:1013B0000F91FF90EF900C94C80822E231E0FC01FD
:1013C0003183208313821282158214820C94B20915
:1013D000FC0124813581232B39F421E0FB0180813C
:1013E000882349F020E007C0808191810E94881EF7
:1013F00021E0892BB9F7822F08954F925F926F9267
:101400007F928F929F92AF92BF92CF92DF92EF9294
:10141000FF920F931F93CF93DF93CDB7DEB7C254E4
:10142000D1090FB6F894DEBF0FBECDBF61157105AF
:1014300019F490E080E04AC0DB01AD90BC901197B8
:10144000A114B104B1F38B017C01FB01C480D580F0
:101450002601F4E04F0E511C12966D907C9064149E
:101460007504C0F044E050E062E471E0C5018C0D09
:101470009D1D0E94981E892B69F484E090E0F7017D
:1014800097838683D80115965C924E92149781E0DB
:1014900090E01CC04601B5E08B0E911C68147904E5
:1014A00068F145E050E060E971E0C5018C0D9D1DDB
:1014B0000E94981E892B11F581E090E0F701978337
:1014C0008683D80115969C928E921497CE5BDF4F3F
:1014D0000FB6F894DEBF0FBECDBFDF91CF911F9145
:1014E0000F91FF90EF90DF90CF90BF90AF909F90C3
:1014F0008F907F906F905F904F9008956414750463
:10150000D0F044E050E066E971E0C5018C0D9D1D0E
:101510000E94981E892B79F482E090E0F70197836E
:10152000868381E090E093878287D80115965C924C
:101530004E921497CBCFC614D70408F07ACFF5019A
:10154000EC0DFD1D8081823229F4B801C7010E9493
:101550007303BCCF8D3229F090ED980F9A3008F0CC
:101560007CC023961FAE1EAE23976C187D0890E0BA
:1015700080E09E012F5F3F4F690121912A33A0F443
:10158000203330F42D3221F02E3211F02B3281F441
:10159000D601A80FB91F2C9301968F33910541F006
:1015A0008615970551F704C0253491F3253681F34C
:1015B0008C0D9D1DDC011C92BE016F5B7F4FC6012F
:1015C0000E944B182B013C012396AEACBFAC239775
:1015D000CA14DB0409F42DCFF701448655866686CC
:1015E000778620E03EEF4FEF56E40E94981C87FD7F
:1015F0001AC08FEF9FE7D7011B969C938E931A9783
:1016000088E090E0F70197838683AC18BD08D80185
:1016100014968D919C911597A80EB91E1596BC92A3
:10162000AE92149734CF20E030E040E057ECC30195
:10163000B2010E94121A181634F080E090E8F70107
:1016400093878287DDCFC301B2010E94621CD7015C
:101650001B967C936E931A97D3CF8B3509F0B1C04C
:10166000D80116968D919C91883EB3E09B0708F0B7
:10167000E0CE0196D80117969C938E9316978081A1
:101680008B3509F0D6CEBFEFCB1ADB0AF801D58235
:10169000C482C8010E941D03D80114968D919C91AB
:1016A000159712964D915C9113978417950740F406
:1016B000ED91FC91E80FF91F20812D3509F474C0DC
:1016C0009C01215031098417950720F0F8013583DA
:1016D0002483AFCED80115963C932E931497912C6A
:1016E000812CD12CC12CF801808591850E94150692
:1016F0005C01009709F45DC0C114D10409F452C023
:10170000D4018D939C93FC0193828282D80114961C
:101710008D919C911597019615969C938E93149795
:10172000C8010E941D03B801C5010E94FD09892B53
:1017300009F443C0C8010E941D03F801848195810A
:101740002281338182179307C0F50190F081E02D4B
:10175000E80FF91F808145018C3229F28D3569F53A
:10176000D80116968D919C911797019717969C9387
:101770008E931697C114D10419F0F601B382A28298
:1017800080E290E0D70117969C938E93169715965A
:10179000DC92CE921497F80184819581019695830D
:1017A000848375CE6C01B2CFB12CA12CD12CC12C6D
:1017B000D7CFC114D10409F43CCEC6010E94C404A1
:1017C00038CE8B3709F035CED80116968D919C9185
:1017D000883EB3E09B0708F02CCE0196D8011796FF
:1017E0009C938E93169780818B3709F022CEBFEFA2
:1017F000CB1ADB0AF801D582C482C8010E941D03FE
:10180000D80114968D919C91159712962D913C912B
:1018100013978217930768F4ED91FC911197E80FE5
:10182000F91F20812D3751F4D12CC12CB12CA12CC2
:101830007AC00197F80195838483FBCD01971596B3
:101840009C938E931497912C812CB12CA12CF80190
:10185000808591850E9415066C01009709F481C06E
:10186000A114B10409F47BC0D4018D939C93FC01B5
:1018700093828282D80114968D919C91159701963E
:1018800015969C938E931497C8010E941D03B8016E
:10189000C6010E947303892B09F467C0C8010E9426
:1018A0001D03F60180859185918B808B11861086B2
:1018B000D80114968D919C91159712962D913C917B
:1018C00013978217930708F050C0ED91FC91119780
:1018D000E80FF91F20812A3309F047C001961596B9
:1018E0009C938E931497C8010E941D03B801C601F2
:1018F0000E94FD09892BC9F1C8010E941D03F8014E
:1019000084819581228133818217930770F501903C
:10191000F081E02DE80FF91F808146018C3209F437
:1019200096CF8D3711F5D80116968D919C9117970A
:10193000019717969C938E931697A114B10419F0F2
:10194000F501D382C28280E490E0D70117969C9380
:101950008E9316971596BC92AE9214971CCF5C018D
:1019600089CFA114B10409F464CDC50127CF4F92EA
:101970005F926F927F928F929F92AF92BF92CF921F
:10198000DF92EF92FF920F931F93CF93DF93611536
:10199000710599F490E080E0DF91CF911F910F9154
:1019A000FF90EF90DF90CF90BF90AF909F908F907F
:1019B0007F906F905F904F9008959B017C010097FE
:1019C00009F4A4C05C018C01912C812CF801919147
:1019D00091112CC00E191F09080D191DB8016D5F5A
:1019E0007F4FC9010E942F060097A1F2EC012196BA
:1019F0006801EFEFCE1ADE0AC80ED91E3801F2E0F8
:101A00006F0E711C680E791E892839F562E2B62EB8
:101A1000FC01B082A801B701CE010E947F1EF60131
:101A2000B082F301108281E090E0B6CF9E3058F48E
:101A30009C3020F488EF890F833048F48FEF881AA8
:101A4000980A8F01C3CF9232C9F39C35B9F3903213
:101A5000C0F785E0880E911CF4CF22E2FC012083C0
:101A60008CE5F82E96E6E92E0BE911E022E7922E9E
:101A700034E7832E4EE6542E52E6452EF501819131
:101A80005F01811104C082E2F6018083CACF8032F7
:101A900048F0823239F08C3529F088839E01E901C3
:101AA0002196ECCF9E012F5F3F4FF882F5013197D1
:101AB00080818C3099F040F48930A1F08A3081F037
:101AC000883091F44982EBCF823231F08C3521F0AD
:101AD0008D3051F49982E3CF8983E1CFE982DFCF62
:101AE0005982DDCF8982DBCF1F928F931F930F9393
:101AF0003F932F930E94A61E9E012B5F3F4F0F9096
:101B00000F900F900F900F900F90C9CF63E070E08F
:101B1000C9010E942F06009709F43CCF61EA71E0E9
:101B20000E94911E80CF2F923F924F925F926F92B0
:101B30007F928F929F92AF92BF92CF92DF92EF925D
:101B4000FF920F931F93CF93DF93CDB7DEB76A97C2
:101B50000FB6F894DEBF0FBECDBF7C018B01DC0158
:101B600016968D919C91179799278830910509F4C5
:101B700058C09CF48230910509F449C08430910525
:101B8000C1F1019791F466E070E0C8010E942F0650
:101B900060E971E00097B1F508C08032910509F461
:101BA0001AC134F4409709F4F8C090E080E0FAC01C
:101BB0008034910509F48FC180389105B1F7F701A0
:101BC000A085B185109789F3FD0101900020E9F708
:101BD0006F01CA1ADB0AB601C8010E942F060097DE
:101BE00021F3D70118966D917C91A6010E947F1E6A
:101BF0000BC065E070E0C8010E942F0662E471E04E
:101C0000009799F20E94911E81E090E0CBC065E0C0
:101C100070E0C8010E942F06009739F266E971E072
:101C2000F1CFF70184849584A684B7843AE1D32E5A
:101C3000CE0101967C01DC01ED2D1D92EA95E9F7BC
:101C4000672B09F4B2CFA5019401C501B4010E942C
:101C5000121A81110CC0A5019401C501B4010E94A2
:101C6000F51B9B01AC010E94121A882351F162E41A
:101C700071E0C7010E94911E24E0222E312CB10197
:101C80006F5F7F4FC8010E942F06FC01D7010097AC
:101C900009F48BCF9D012E193F092215330508F455
:101CA00078C0820D931DFC011082D80114968D918D
:101CB0009C911597280E391E15963C922E921497DA
:101CC000A3CFD7011D92DA94E9F7C501B4010E94B0
:101CD000621C2B013C012AE0A7010E94C719F701F1
:101CE00001900020E9F731976F01CE18DF08160147
:101CF000C301B2010E94191A9B01AC01C501B401D4
:101D00000E94F51B28E23BE64EE65EE40E94781A4C
:101D10000E94621C97FF07C0909580957095619511
:101D20007F4F8F4F9F4F4B015C019AE0492E512C02
:101D3000612C712C81149104A104B10409F1C50135
:101D4000B401A30192010E94491B672B682B692BE8
:101D5000E9F0F701EC0DFD1D8EE28083A6014F5FD7
:101D60005F4F4E0D5F1D2AE0C501B4010E94C719E7
:101D7000F70101900020E9F731971F012E183F0865
:101D8000BAE12B1631040CF010CF79CF49015A017A
:101D9000D1CF2D91208331967DCFF701808591851C
:101DA0000E94B70C6A960FB6F894DEBF0FBECDBF87
:101DB000DF91CF911F910F91FF90EF90DF90CF9027
:101DC000BF90AF909F908F907F906F905F904F905B
:101DD0003F902F900895672B09F4E7CE1496ED906D
:101DE000FC9061E070E0C8010E942F06009709F4A2
:101DF000DCCE2BE5FC012083D80114968D919C91BB
:101E00001597019615969C938E93149716968D911F
:101E10009C911797019617969C938E931697BCE208
:101E2000BB2E80E2A82EE114F104B9F462E070E068
:101E3000C8010E942F062DE5009709F4B6CEFC01DB
:101E400020831182D80116968D919C911797019746
:101E500017969C938E931697D7CEB801C7010E9410
:101E6000930D892B09F4A1CEC8010E945D08F701EA
:101E700080819181892B59F1D8011A968D919C917D
:101E8000A2E0CA2ED12C892B19F4CC24C394D12CD6
:101E9000B6016F5F7F4FC8010E942F06009709F4BB
:101EA00084CEFC01B082D8011A962D913C913196D6
:101EB000232B29F0FC013296DC011196AC921082A2
:101EC000F801848195818C0D9D1D95838483D701B4
:101ED000ED90FC90A8CF6115710509F466CEFB0169
:101EE00082859385E2E0CE2ED12C892B19F4CC2467
:101EF000C394D12CD7011496ED90FC90B6016F5F7E
:101F00007F4FC8010E942F06009709F44ECE2BE7A1
:101F1000FC012083D80116962D913C9117972F5FD5
:101F20003F4F17963C932E9316971A962D913C91FE
:101F3000232B11F02AE02183F801848195818C0DF7
:101F40009D1D9583848339E0B32E4AE3A42E5CE281
:101F5000952E6AE0862EF80182859385E114F104BE
:101F600041F562E070E0892B21F0668177816F5F37
:101F70007F4FC8010E942F06009709F416CED801A2
:101F80001A962D913C91232B91F0BC01FC0189E024
:101F9000F82ECF01D80116962D913C912150310990
:101FA000AF01461B570B4217530708F49BC02DE7A0
:101FB00046CF892B09F1D80116966D917C91C80105
:101FC0000E942F06009709F4F0CDFC01D801169667
:101FD0002D913C911797AF01481B590B421753079E
:101FE00008F47EC014968D919C911597820F931FD3
:101FF00015969C938E931497B801F7018089918967
:102000000E94B70C892B09F4D0CDC8010E945D084D
:10201000D8011A968D919C9122E0C22ED12C892B49
:1020200019F4CC24C394D12CB601C8010E942F0608
:10203000009709F4BACDFC01A082D8011A962D911F
:102040003C91232B09F0B182F801648175816C0DFC
:102050007D1D75836483B801C7010E94930D892B90
:1020600009F4A3CDC8010E945D0821E030E0D80149
:102070001A968D919C91892B11F430E020E081E03B
:1020800090E0F70140815181452B11F490E080E010
:102090006901C80ED91EB6016F5F7F4FC8010E944B
:1020A0002F06FC01892B09F480CDD7018D919C91DD
:1020B000892B11F090823196D8011A968D919C91BE
:1020C000892B11F0808231961082F80184819581EC
:1020D000C80ED91ED582C482D701ED90FC903BCFAB
:1020E000B19274CFF19255CFEF92FF920F931F935D
:1020F000CF93DF93CDB7DEB762970FB6F894DEBF0C
:102100000FBECDBF7C018E010F5F1F4F82E1F80132
:1021100011928A95E9F7E0910001F091010180E0C8
:1021200091E009959A83898320E031E03C832B83F9
:102130001C861B8626E0E0E0F1E0DE011D960190A2
:102140000D922A95E1F7892BE9F0E114F104D1F021
:10215000B801C7010E94930D892BA1F0C8010E940C
:102160005D08E0910401F09105018D819E81309719
:10217000B9F0BC016F5F7F4F89819A8109958C010D
:10218000892B91F509811A810115110569F1E091F9
:102190000201F0910301C801099510E000E024C09C
:1021A000E0910001F0910101019609958C01892BC4
:1021B00049F34D815E818B819C814F5F5F4F841716
:1021C000950708F4AC0169817A81C8010E947F1EDD
:1021D000ED81FE81E00FF11F1082E0910201F0918C
:1021E000030189819A810995C80162960FB6F89416
:1021F000DEBF0FBECDBFDF91CF911F910F91FF903A
:10220000EF900895EF92FF920F931F93CF93DF9378
:10221000CDB7DEB762970FB6F894DEBF0FBECDBF65
:102220007C018B0182E291E09E878D87188A1F8650
:102230001A8A198A50E040E0BE01635F7F4FCE01E9
:1022400001960E942209B701CE0101960E94B209AF
:10225000CE0101960E94620541E050E0BE01635F3D
:102260007F4FCE0101960E94220983E0093E1807A4
:1022700009F07CC00D811E810115110509F46EC0A5
:10228000D80116968C91803409F068C0EB81FC81EE
:1022900060897189C8010E94A208FC01009731F190
:1022A000D80114964D915C914817590739F0208157
:1022B000318182819381DC012D933C9380819181D6
:1022C000009709F47BC022813381DC0113963C9393
:1022D0002E9312974E175F0729F4D80115969C93F9
:1022E0008E9314971382128211821082CF010E9462
:1022F000C4041C821B821E821D82CE0101960E9494
:1023000062058F8598890097B9F518861F821A860D
:1023100019861C861B864B855C856F8178858CE4CD
:1023200093E00E9417016DE871E08CE493E00E9455
:102330009F07CE0107960E948505CE010D960E944B
:10234000620562960FB6F894DEBF0FBECDBFDF9177
:10235000CF911F910F91FF90EF9008950E94210659
:10236000BC01CE0101960E94C808C7CFF801828146
:1023700093810E94CD06F4CF0E9474108C01BC01A1
:10238000CE0101960E945007C8010E94180389815E
:102390009A8198878F838B819C819A8789878D8189
:1023A0009E819C878B871A8219821C821B821E82C7
:1023B0001D82CE0101960E948505ADCF4E175F07A5
:1023C00009F48BCF82819381DA0113969C938E93CB
:1023D000129788CF0F931F93CF93DF93FC018281D5
:1023E0009381D0E0C0E0009771F0EB010E9474107F
:1023F0008C01009771F0BC01CE010E949F07EC0197
:10240000C8010E941803CE01DF91CF911F910F9157
:102410000895D0E0C0E0F4CF8F929F92BF92CF9208
:10242000DF92EF92FF920F931F93CF93DF93CDB77D
:10243000DEB7A4970FB6F894DEBF0FBECDBFB82E9F
:102440007B018E010F5F1F4FC8010E94650767EB7C
:1024500071E0C8010E94E809D82EC8010E948505D4
:1024600064EA71E0DD2089F0D7011296ED91FC91CC
:10247000309741F18681883029F5E284F384B5EB09
:10248000EB16F10410F165EC71E0C8010E94DD0962
:10249000B8018EEB91E00E940211C8010E94620512
:1024A000A4960FB6F894DEBF0FBECDBFDF91CF91DB
:1024B0001F910F91FF90EF90DF90CF90BF909F9072
:1024C0008F900895F12CE12CDACF1A8E198E1C8E84
:1024D0001B8E1E8E1D8E4AE0B801C7010E94BC19DA
:1024E000F80101900020E9F73197AF01401B510B33
:1024F000B801CE0149960E94F4051C8A1B8A1E8AE7
:102500001D8A188E1F8AB9821A82F8010190002054
:10251000E9F73197AF01401B510BB801CE0143964B
:102520000E94F40561EE71E0C8010E945007BE01EF
:102530006D5E7F4FC8010E94C1056C01FC01848063
:102540009580FCE08F0E911CB4010E9499058111C9
:1025500053C0C6010E947305BE01675E7F4FC6016E
:102560000E94C10518A21F8E1AA219A21CA21BA2AA
:102570006E01FFE1CF0ED11C8C159D0569F0DC01C9
:102580006D917C9111976115710531F014964D9103
:102590005C91C6010E94F405C8010E948505CE0128
:1025A00043960E948505CE0149960E9485056F8D50
:1025B00078A1C8010E94DD09B8018EEB91E00E946C
:1025C0000211C8010E946205B3E4B70189E895E0F1
:1025D000BB1661F0E4E486E895E0BE1639F0F2E45B
:1025E0008FE895E0BF1202C08CE895E00E942402BB
:1025F000C6010E94850554CFD6012D913C911197BB
:1026000014968D919C9169EE71E0820F931F0E9448
:10261000911EF601958284829FCFCF93DF9300D0E5
:1026200000D000D0CDB7DEB7BC01CE0101960E942C
:102630003D07BE016F5F7F4F81E40E940C12CE0107
:1026400001960E94620526960FB6F894DEBF0FBE73
:10265000CDBFDF91CF9108950C940D13CF93DF93ED
:1026600000D000D000D0CDB7DEB7BC01CE010196BE
:102670000E943D07BE016F5F7F4F82E40E940C12F3
:10268000CE0101960E94620526960FB6F894DEBF31
:102690000FBECDBFDF91CF9108950C942E13CF9331
:1026A000DF9300D000D000D0CDB7DEB7BC01CE01A3
:1026B00001960E943D07BE016F5F7F4F83E40E9439
:1026C0000C12CE0101960E94620526960FB6F89470
:1026D000DEBF0FBECDBFDF91CF9108950C944F1395
:1026E000CF93DF9300D000D000D0CDB7DEB7BC01D0
:1026F000CE0101960E943D07BE016F5F7F4F84E4CB
:102700000E940C12CE0101960E94620526960FB619
:10271000F894DEBF0FBECDBFDF91CF9108950C942A
:1027200070131F920F920FB60F9211242F933F93A5
:102730008F939F93AF93BF938091440390914503F0
:10274000A0914603B09147033091430323E0230F48
:102750002D3758F50196A11DB11D20934303809399
:10276000440390934503A0934603B093470380919D
:10277000480390914903A0914A03B0914B030196FD
:10278000A11DB11D8093480390934903A0934A0370
:10279000B0934B03BF91AF919F918F913F912F9138
:1027A0000F900FBE0F901F90189526E8230F0296EA
:1027B000A11DB11DD2CF1F920F920FB60F921124FF
:1027C0002F933F934F935F936F937F938F939F9339
:1027D000AF93BF93EF93FF938CE493E00E94950136
:1027E000FF91EF91BF91AF919F918F917F916F91E9
:1027F0005F914F913F912F910F900FBE0F901F90BF
:1028000018951F920F920FB60F9211242F938F934A
:102810009F93EF93FF93E0915C03F0915D038081C0
:10282000E0916203F091630382FD1BC0908180916F
:1028300065038F5F8F7320916603821741F0E091EB
:102840006503F0E0E45BFC4F958F80936503FF9197
:10285000EF919F918F912F910F900FBE0F901F902E
:1028600018958081F4CF1F920F920FB60F9211240A
:102870002F933F934F935F936F937F938F939F9388
:10288000AF93BF93CF93DF93EF93FF9380911803A0
:10289000C0911903D0E087FF24C0109285001092E8
:1028A0008400809118038F5F809318038091180330
:1028B000082E000C990B8C179D0724F480911803A7
:1028C0008C30C4F18091840090918500049680340E
:1028D0009C4908F47AC08091840090918500049608
:1028E00076C080911803082E000C990B8C179D0759
:1028F000C4F6E09118038E2FEE0F990BFC01EE0F3A
:10290000FF1FE80FF91FE65EFC4F808186FFC9CFED
:10291000E09118038E2FEE0F990BFC01EE0FFF1FB5
:10292000E80FF91FE65EFC4F808160E08F730E9424
:10293000A600B7CF2091840030918500E091180364
:102940008E2FEE0F990BFC01EE0FFF1FE80FF91F02
:10295000E65EFC4F81819281820F931F90938900E4
:1029600080938800E09118038E2FEE0F990BFC01E5
:10297000EE0FFF1FE80FF91FE65EFC4F808186FF18
:1029800011C0E09118038E2FEE0F990BFC01EE0F92
:10299000FF1FE80FF91FE65EFC4F808161E08F7337
:1029A0000E94A600FF91EF91DF91CF91BF91AF916F
:1029B0009F918F917F916F915F914F913F912F9157
:1029C0000F900FBE0F901F90189580E49CE9909394
:1029D0008900809388008FEF80931803E3CFFC0178
:1029E000909119039C3098F481E0890F809319032A
:1029F0009083892F90E0FC01EE0FFF1FE80FF91F75
:102A0000E65EFC4F88EB9BE09283818308958FEF15
:102A100080830895ECE4F3E01382128288EE93E061
:102A2000A0E0B0E084839583A683B78380E191E042
:102A30009183808385EC90E09587848784EC90E097
:102A40009787868780EC90E0918B808B81EC90E07B
:102A5000938B828B82EC90E0958B848B86EC90E05C
:102A6000978B868B118E128E138E148EE9EEF3E007
:102A700082E291E091838083138212821582148214
:102A80008CE291E09093F0038093EF038FE895E060
:102A90000E94EF148CE895E00E94EF1489E895E01D
:102AA0000E94EF1486E895E00E94EF141092F40360
:102AB0001092F303109285050895CF93DF93CDB75D
:102AC000DEB76A970FB6F894DEBF0FBECDBF78941D
:102AD00084B5826084BD84B5816084BD85B5826023
:102AE00085BD85B5816085BD80916E0081608093D4
:102AF0006E0010928100809181008260809381003D
:102B0000809181008160809381008091800081604C
:102B1000809380008091B10084608093B1008091A7
:102B2000B00081608093B00080917A0084608093CF
:102B30007A0080917A00826080937A0080917A0096
:102B4000816080937A0080917A00806880937A0017
:102B50001092C100E0915C03F0915D0382E08083FC
:102B6000E0915C03F0915D031082E0915803F091D5
:102B700059031082E0915A03F0915B0380E1808356
:102B800010926403E0916003F091610386E080831A
:102B9000E0915E03F0915F03808180618083E0912A
:102BA0005E03F0915F03808188608083E0915E0323
:102BB000F0915F03808180688083E0915E03F091F3
:102BC0005F0380818F7D808363E070E08FE895E014
:102BD0000E94A00265E070E08CE895E00E94A002EF
:102BE00066E070E089E895E00E94A00269E070E08C
:102BF00086E895E00E94A0026CE273E186EF91E026
:102C00000E94AE076DE473E188EF91E00E94AE0789
:102C10006EE673E18AEF91E00E94AE076FE873E120
:102C20008CEF91E00E94AE078E010F5F1F4F35E8D9
:102C3000632E34E0732E42E2A42E41E0B42E2FB76F
:102C4000F8948091440390914503A0914603B0917C
:102C500047032FBF40913F035091400360914103D0
:102C60007091420384179507A607B707C8F0805FE5
:102C7000984DAF4FBF4F80933F0390934003A09375
:102C80004103B09342036EEF71E0C8010E94DD0979
:102C9000B8018EEB91E00E940211C8010E9462050A
:102CA0008CE493E00E9475012091850518161906A1
:102CB000CCF4211117C08CE493E00E945301909151
:102CC0003E03292F30E02F503C4F8A3009F04DC091
:102CD0002C563F4FF9011082F1E0F09385051092D8
:102CE0003E03DECF222309F43BC110928505E5E8BF
:102CF000F4E001900020E9F7CF011D821E821F82BF
:102D000018867A826982855894409C838B8386E0FA
:102D1000E0E0F1E0DE01199601900D928A95E1F76D
:102D200080910001909101010E9415067C01892B80
:102D300009F4AAC189819A810097F9F02D813E8119
:102D4000232BD9F42B813C812530310560F043E001
:102D500050E067E072E00E94981E892B21F483E026
:102D600090E09E838D83C8010AC02C563F4FF90125
:102D700080839F5F90933E0393CF80E090E00E941A
:102D80001D03BC01C7010E94FD09892B09F479C10B
:102D9000BE8AAD8AF88EEF8A1A8E198EBE016B5EDE
:102DA0007F4FC8010E94650760E371E0C8010E947F
:102DB000E809F82EC8010E9485056BE072E0F11069
:102DC00054C150E040E0BE016B5E7F4FC8010E94DD
:102DD0002209C8010E945305BC018CE492E00E94C4
:102DE000881E6C01C8010E94620550E040E0BE01EF
:102DF0006B5E7F4FC8010E942209C8010E945305E3
:102E0000BC018FE492E00E94881E7C01C8010E94F0
:102E10006205CD2881F450E040E0BE016B5E7F4F3B
:102E2000C8010E94220962E572E0C8010E94B2094D
:102E3000C8010E946205EF2891F541E050E0BE0113
:102E40006B5E7F4FC8010E942209C8010E94530592
:102E50007C0150E040E0BE016B5E7F4FCE010F96DB
:102E60000E942209B701CE010F960E94B209CE013D
:102E70000F960E946205C8010E94620541E050E081
:102E8000BE016B5E7F4FC8010E9422090E9421068D
:102E9000BC01C8010E94C808C8010E946205CE0199
:102EA00045960E94780802970CF4B9C050E040E0C3
:102EB000BE016B5E7F4FCE010F960E942209BE01BC
:102EC000615F7F4FC8010E94650767E471E0C80138
:102ED0000E94E809F82EC8010E948505CE010F96D0
:102EE0000E946205FF2009F49AC021EFC22E23E060
:102EF000D22EF12CE12CF6018481882309F461C0E3
:102F000050E040E0BE016B5E7F4FC8010E94220985
:102F1000C8010E945305BC01C60104960E94881E88
:102F20004C01C8010E946205892809F04AC0F701D6
:102F3000EE0FFF1FEB58FB4FE080F18041E050E0C7
:102F4000BE016B5E7F4FC8010E942209C801F701D4
:102F50000995C8010E946205CE0145960E9462054E
:102F60000E94F2001B012C0185E0C82ED12CE12C1F
:102F7000F12C0E94F2006219730984099509683ED8
:102F8000734081059105A8F391E0C91AD108E108C1
:102F9000F108E8EE2E0EE3E03E1E411C511CC11468
:102FA000D104E104F10429F780E090E0892B09F4D1
:102FB00046CE0E948101882309F441CE0E94000080
:102FC0003ECEFFEFEF1AFF0A20E1C20ED11C88E0CF
:102FD000E816F10409F08FCF67E572E08CE493E026
:102FE0000E949F0750E040E0BE016B5E7F4FC8012A
:102FF0000E9422096CE473E0C8010E94EA11C80132
:103000000E94620567E772E08CE493E00E949F07EC
:103010006DE871E08CE493E00E949F079DCFCE01A4
:1030200045960E94780802974CF150E040E0BE01BE
:103030006B5E7F4FCE010F960E942209BE01615F39
:103040007F4FC8010E94650767E471E0C8010E94D4
:10305000E809F82EC8010E948505CE010F960E944E
:103060006205F1100BC066E972E0C8010E94DD093B
:10307000B80189E492E00E9402116BCF64EF72E024
:10308000C3CFC7010E94C404F12CE12C81CE89EE8C
:1030900093E00C946205B0E0A0E0E1E5F8E10C9467
:1030A000811B5C017B016115710519F0DB018D93BA
:1030B0009C9385010F5F1F4FF501D0818D2F90E00C
:1030C0000E949B196C01892BB9F5DD32B9F50F5FB0
:1030D0001F4FD5011196DC91C1E05801F1E0AF1A04
:1030E000B10843E050E060E770E0C5010E94A41918
:1030F000892B69F5680182E0C80ED11C45E050E0DB
:103100006BE670E0C6010E94A419892B21F46801C6
:1031100097E0C90ED11CE114F10419F0D701CD924A
:10312000DC9260E070E080E89FEFC111FFC060E0DA
:1031300070E080E89FE7FAC05801BBCFDB3229F48A
:1031400085010E5F1F4FF501D181C0E0C6CF43E07E
:1031500050E068E670E0C5010E94A419892BE9F0EF
:10316000F80110E000E020E030E0A9015F01B0EDDF
:103170008B2E8D0E89E08815C8F19C2E689491F8ED
:103180008C2F8870C2FF16C0811102C00F5F1F4FC5
:103190003196D501DC91C92DE9CFE114F10429F074
:1031A0000E5F1F4FF7011183008360E070E080EC39
:1031B0009FE7BCC0882311F001501109A5E0B0E0E1
:1031C0000E94681B9B01AC01220F331F441F551F37
:1031D000280D311D411D511D283999E9390749072D
:1031E00099E15907A8F2C6609C2ED2CFAEEF8A12A1
:1031F00006C0C3FD3CC09C2E689493F8C9CFDF7D08
:10320000D534A9F580818D3239F4C061DF01129681
:10321000818162E070E006C0DF018B32C1F311965C
:1032200061E070E080535D01A61AB70A8A30F8F4B5
:10323000E0E8CE16ECE0DE065CF4B601660F771F20
:10324000660F771FC60ED71ECC0CDD1CC80ED11C16
:103250005D01FFEFAF1ABF0A8C9180538A30A8F14D
:10326000C4FF03C0D194C194D1080C0D1D1DC1FF32
:1032700009C0E114F10431F081E0A81AB108D701C6
:10328000AD92BC92CA01B9010E94171AC370C33033
:1032900009F490584B015C0120E030E0A9010E9444
:1032A000121A882309F440C0CFE9D0E017FF05C007
:1032B000119501951109C7E8D0E06E01B8E1CB1A6C
:1032C000D10880E2E82EF12C0FC0D501B1CFFE016C
:1032D00025913591459154910E191F09C501B401ED
:1032E0000E94781A4B015C01D501C4010E151F051F
:1032F00074F72497F594E794CC16DD06A9F78A2F86
:10330000880F8B2F881F8F3F49F020E030E0A90104
:10331000C501B4010E94121A811106C082E290E038
:103320009093930580939205C501B401CDB7DEB7A4
:10333000ECE00C949D1B91110C94E51A803219F06D
:1033400089508550C8F70895FB01DC014150504079
:1033500088F08D9181341CF08B350CF4805E659182
:1033600061341CF06B350CF4605E861B611171F3E7
:10337000990B0895881BFCCFBB274A3031F4992361
:1033800022F4BDE2909581959F4F0C94F919BB27CB
:103390002A3051F4992342F4BDE2909580957095BE
:1033A00061957F4F8F4F9F4F0C94D719BB27FA0120
:1033B000A62F6217710581059105330B30FB66F06E
:1033C000AA27660F771F881F991FAA1FA21710F040
:1033D000A21B63953850A9F7A05DAA3308F0A95D38
:1033E000A19336F7B111B1931082CA010C94E81A77
:1033F000BB27FB015527AA27880F991FAA1FA417CF
:1034000010F0A41B83955051B9F7A05DAA3308F0C2
:10341000A95DA193009779F7B111B1931192CB01F6
:103420000C94E81A0E94541A08F481E00895E89474
:1034300009C097FB3EF490958095709561957F4FFC
:103440008F4F9F4F9923A9F0F92F96E9BB279395AA
:10345000F695879577956795B795F111F8CFFAF4BA
:10346000BB0F11F460FF1BC06F5F7F4F8F4F9F4FEB
:1034700016C0882311F096E911C0772321F09EE849
:10348000872F762F05C0662371F096E8862F70E0AF
:1034900060E02AF09A95660F771F881FDAF7880F89
:1034A0009695879597F90895990F0008550FAA0BDF
:1034B000E0E8FEEF16161706E807F907C0F0121647
:1034C0001306E407F50798F0621B730B840B950B4A
:1034D00039F40A2661F0232B242B252B21F408959F
:1034E0000A2609F4A140A6958FEF811D811D08953C
:1034F0000E948B1A0C940F1B0E94011B38F00E9433
:10350000081B20F0952311F00C94F81A0C94FE1A65
:1035100011240C94431B0E94201B70F3959FC1F350
:10352000950F50E0551F629FF001729FBB27F00D71
:10353000B11D639FAA27F00DB11DAA1F649F6627C6
:10354000B00DA11D661F829F2227B00DA11D621F15
:10355000739FB00DA11D621F839FA00D611D221FCF
:10356000749F3327A00D611D231F849F600D211DB3
:10357000822F762F6A2F11249F5750409AF0F1F036
:1035800088234AF0EE0FFF1FBB1F661F771F881F9F
:1035900091505040A9F79E3F510580F00C94F81AC5
:1035A0000C94431B5F3FE4F3983ED4F386957795E4
:1035B0006795B795F795E7959F5FC1F7FE2B880F45
:1035C000911D9695879597F90895992788270895CD
:1035D000DC01FC01672F71917723E1F7329704C07A
:1035E0007C916D9370836291AE17BF07C8F3089505
:1035F00097F99F6780E870E060E008959FEF80ECA6
:10360000089500240A941616170618060906089548
:1036100000240A9412161306140605060895092EAE
:103620000394000C11F4882352F0BB0F40F4BF2B1D
:1036300011F460FF04C06F5F7F4F8F4F9F4F08955D
:1036400057FD9058440F551F59F05F3F71F0479553
:10365000880F97FB991F61F09F3F79F08795089538
:10366000121613061406551FF2CF4695F1DF08C057
:10367000161617061806991FF1CF86957105610574
:1036800008940895E894BB2766277727CB0197F91C
:103690000895052E97FB1EF400940E94601B57FDB1
:1036A00007D00E94B21B07FC03D04EF40C94601BA1
:1036B00050954095309521953F4F4F4F5F4F08955E
:1036C00090958095709561957F4F8F4F9F4F08958E
:1036D0000E94D41BA59F900DB49F900DA49F800DB8
:1036E000911D11240895B7FF0C94681B0E94681B5C
:1036F000821B930B08952F923F924F925F926F928D
:103700007F928F929F92AF92BF92CF92DF92EF9271
:10371000FF920F931F93CF93DF93CDB7DEB7CA1BF2
:10372000DB0B0FB6F894DEBF0FBECDBF09942A881D
:10373000398848885F846E847D848C849B84AA84C5
:10374000B984C884DF80EE80FD800C811B81AA8152
:10375000B981CE0FD11D0FB6F894DEBF0FBECDBF1D
:10376000ED010895A1E21A2EAA1BBB1BFD010DC09D
:10377000AA1FBB1FEE1FFF1FA217B307E407F50721
:1037800020F0A21BB30BE40BF50B661F771F881FFD
:10379000991F1A9469F760957095809590959B0193
:1037A000AC01BD01CF010895A29FB001B39FC0013C
:1037B000A39F700D811D1124911DB29F700D811D5D
:1037C0001124911D0895991B79E004C0991F961743
:1037D00008F0961B881F7A95C9F780950895EE0F1B
:1037E000FF1F0590F491E02D09945058BB27AA279C
:1037F0000E940D1C0C940F1B0E94011B38F00E94AC
:10380000081B20F039F49F3F19F426F40C94FE1A9B
:103810000EF4E095E7FB0C94F81AE92F0E94201BA8
:1038200058F3BA17620773078407950720F079F4F5
:10383000A6F50C94421B0EF4E0950B2EBA2FA02D8A
:103840000B01B90190010C01CA01A0011124FF274D
:10385000591B99F0593F50F4503E68F11A16F04048
:10386000A22F232F342F4427585FF3CF4695379547
:103870002795A795F0405395C9F77EF41F16BA0B0C
:10388000620B730B840BBAF09150A1F0FF0FBB1FBA
:10389000661F771F881FC2F70EC0BA0F621F731F03
:1038A000841F48F4879577956795B795F7959E3F60
:1038B00008F0B0CF9395880F08F09927EE0F9795F1
:1038C000879508950E94691C6894B1110C94431B5C
:1038D00008950E94281B88F09F5798F0B92F9927C8
:1038E000B751B0F0E1F0660F771F881F991F1AF0EB
:1038F000BA95C9F714C0B13091F00E94421BB1E0F3
:1039000008950C94421B672F782F8827B85F39F0F1
:10391000B93FCCF3869577956795B395D9F73EF483
:1039200090958095709561957F4F8F4F9F4F08952B
:103930000E94541A08F48FEF08950F931F93CF93AA
:10394000DF938230910510F482E090E0E0919605DB
:10395000F091970530E020E0B0E0A0E0309799F4D6
:103960002115310509F44AC0281B390B24303105D3
:10397000D8F58A819B816115710589F1FB019383DB
:103980008283FE0111C04081518102811381481759
:103990005907E0F04817590799F4109761F012960B
:1039A0000C93129713961C933296CF01DF91CF910F
:1039B0001F910F9108950093960510939705F4CFEA
:1039C0002115310551F04217530738F0A901DB01E9
:1039D0009A01BD01DF01F801C1CFEF01F9CF90934A
:1039E000970580939605CDCFFE01E20FF31F8193DB
:1039F00091932250310939832883D7CF20919405A0
:103A000030919505232B41F4209108013091090153
:103A1000309395052093940520910601309107017C
:103A20002115310541F42DB73EB740910A0150915F
:103A30000B01241B350BE0919405F0919505E217DD
:103A4000F307A0F42E1B3F0B2817390778F0AC01C1
:103A50004E5F5F4F2417350748F04E0F5F1F50939E
:103A6000950540939405819391939FCFF0E0E0E01A
:103A70009CCFCF93DF930097E9F0FC01329713823C
:103A80001282A0919605B0919705ED0130E020E0FB
:103A90001097A1F420813181820F931F209194050A
:103AA000309195052817390709F061C0F093950505
:103AB000E0939405DF91CF910895EA01CE17DF07D7
:103AC000E8F54A815B819E0141155105B1F7E90195
:103AD000FB83EA8349915991C40FD51FEC17FD0769
:103AE00061F4808191810296840F951FE901998389
:103AF0008883828193819B838A83F0E0E0E0129641
:103B00008D919C9113970097B9F52D913C91119748
:103B1000CD010296820F931F209194053091950557
:103B20002817390739F6309751F5109297051092FA
:103B30009605B0939505A0939405BCCFD383C2831B
:103B400040815181840F951FC817D90761F44E5FDA
:103B50005F4F88819981480F591F518340838A8123
:103B60009B81938382832115310509F0B0CFF093B7
:103B70009705E09396059ECFFD01DC01C0CF13822F
:103B80001282D7CFB0E0A0E0E8ECFDE10C947D1B01
:103B90008C01009751F4CB010E949D1C8C01C8013F
:103BA000CDB7DEB7E0E10C94991BFC01E60FF71FDF
:103BB0009C0122503109E217F30708F49DC0D90196
:103BC000CD91DC911197C617D70798F0C530D10574
:103BD00030F3CE0104978617970708F3C61BD70B5F
:103BE0002297C193D1936D937C93CF010E94391D8D
:103BF000D6CF5B01AC1ABD0A4C018C0E9D1EA09164
:103C00009605B0919705512C412CF12CE12C109781
:103C100031F580919405909195058815990509F0E5
:103C20005CC04616570608F058C080910601909176
:103C30000701009741F48DB79EB740910A0150915A
:103C40000B01841B950BE817F90708F055C0F0939A
:103C50009505E0939405F90171836083A0CF8D9160
:103C60009C91119712966C90129713967C901397D3
:103C7000A815B90559F56C0142E0C40ED11CCA144F
:103C8000DB0420F1AC014A195B09DA0112961597A1
:103C900080F06282738251834083D9016D937C935B
:103CA000E114F10471F0D7011396FC93EE9312978F
:103CB00076CF22968C0F9D1FF90191838083F301AB
:103CC000EFCFF0939705E093960569CF4816590614
:103CD00008F42C017D01D3019ACFCB010E949D1CD9
:103CE0007C01009749F0AE01B8010E947F1EC80117
:103CF0000E94391D870153CF10E000E050CFFB0137
:103D0000DC0102C001900D9241505040D8F7089557
:103D1000FB01DC018D91019080190110D9F3990B01
:103D20000895FB01DC0101900D920020E1F7089558
:103D3000FB01DC014150504030F08D910190801921
:103D400019F40020B9F7881B990B0895AEE0B0E094
:103D5000ECEAFEE10C94891B0D891E8986E08C83B8
:103D60001A8309838FEF9FE79E838D83AE01475EA1
:103D70005F4F6F89788DCE0101960E94C91E2F81F9
:103D80003885020F131FF80110822E96E4E00C9480
:103D9000A51BABE0B0E0EFECFEE10C947B1B7C01DB
:103DA0003B018A01FC0117821682838181FFC8C111
:103DB000CE0101965C01F7019381F30193FD85919A
:103DC00093FF81913F01882309F453C1853239F46F
:103DD00093FD859193FF81913F01853229F4B701CD
:103DE00090E00E94B920E7CF912C212C312CFFE1EB
:103DF000F31538F08B3211F190F4803209F18332EF
:103E000029F137FC3CC020ED280F2A3050F536FE52
:103E100020C08AE0989E200D1124922E06C08D327B
:103E200091F0803371F7689430F8F30193FD859138
:103E300093FF81913F018111DACF21C0689431F85D
:103E4000689432F8F2CF689433F8EFCF689434F87E
:103E5000ECCFEAE02E9E200D1124222E689435F836
:103E6000E4CF8E3229F436FC04C1689436F8DDCFF5
:103E70008C3619F4689437F8D8CF8836B1F2982F79
:103E80009F7D95549330E0F08336A1F18337C1F1E3
:103E9000833509F063C02801F2E04F0E511CF80190
:103EA000C080D180692D70E036FC02C06FEF7FEFDB
:103EB000C6010E94A3204C01689437F882010AC011
:103EC0000C5F1F4FFFE3F98388248394912C6501D5
:103ED000E89437F833FE2DC0522C8114910471F50B
:103EE000552009F468CFB70180E290E00E94B92024
:103EF0005A94F6CFF801808189830E5F1F4FE4CF7B
:103F00002801F2E04F0E511CF801C080D180692DCC
:103F100070E036FC02C06FEF7FEFC6010E94AE205A
:103F20004C018201D5CFB70180E290E00E94B92018
:103F30002A942814190409F0B0F7CECFF60137FC03
:103F4000859137FE81916F01B70190E00E94B92001
:103F500051105A94F1E08F1A9108BFCF843619F0AE
:103F6000893609F077C0F80137FE6BC06081718136
:103F7000828193810C5F1F4FF32DFF763F2E97FFB9
:103F800009C090958095709561957F4F8F4F9F4F99
:103F9000689437F82AE030E0A5010E94E920C82E95
:103FA000CA188C2C432C36FE0CC0E89440F8C91477
:103FB00040F434FE05C032FC03C0F32DFE7E4F2ECC
:103FC000892C44FE95C0FE01EC0DF11D80818033EB
:103FD00009F087C0242D297E422E842D8870582E0A
:103FE00043FC95C040FE8FC09C2C821418F42C0C0E
:103FF000922C981844FE91C0B70180E390E00E9493
:10400000B92042FE09C088E790E041FE02C088E581
:1040100090E0B7010E94B920C91408F48AC0CA947C
:10402000D12C9FEFC91AD90ACA0CDB1CF601829168
:104030006F01B70190E00E94B920AC14BD04B1F744
:104040004FCF60817181072E000C880B990B0E5F9A
:104050001F4F92CFD32CE894D4F82AE030E0853774
:1040600039F1232D297FD22E8F3601F148F488357E
:10407000A9F0F701868197812B96E2E10C94971BBA
:10408000803749F08837A9F7D4FE02C06894D2F887
:1040900020E130E00DC06894D4F8F6CF34FE03C0C0
:1040A000822F8660D82E20E132E002C028E030E086
:1040B000F801D7FE0FC060817181828193810C5F0E
:1040C0001F4FA5010E94E920C82ECA183D2CE89474
:1040D00037F867CF6081718190E080E00E5F1F4FFD
:1040E000F0CF42FC02C0839478CF8394839475CF41
:1040F000842D867809F471CFF6CFB70180E290E085
:104100000E94B92083948214C0F3512C73CF522C97
:104110005818821408F46ECFF8CF842D867809F4ED
:104120007BCF8BE241FE80E247FC8DE2B70190E05D
:1041300071CFB70180E390E00E94B9209A946CCFD0
:104140008FEF9FEF99CFFC010590615070400110F7
:10415000D8F7809590958E0F9F1F0895FC016150B0
:10416000704001900110D8F7809590958E0F9F1F99
:1041700008950F931F93CF93DF93182F092FEB010F
:104180008B8181FD09C01FEF0FEF812F902FDF91F1
:10419000CF911F910F91089582FF14C02E813F810E
:1041A0008C819D81281739073CF4E881F981CF0182
:1041B00001969983888310838E819F8101969F83C6
:1041C0008E83E3CFE885F985812F0995892BA1F3AB
:1041D000DACFFA01AA27283051F1203181F1E89491
:1041E0006F936E7F6E5F7F4F8F4F9F4FAF4FB1E0EA
:1041F0003ED0B4E03CD0670F781F891F9A1FA11DE5
:10420000680F791F8A1F911DA11D6A0F711D811DE5
:10421000911DA11D20D009F468943F912AE0269FAA
:1042200011243019305D3193DEF6CF010895462F09
:104230004770405D4193B3E00FD0C9F7F6CF462FEA
:104240004F70405D4A3318F0495D31FD4052419353
:1042500002D0A9F7EACFB4E0A69597958795779510
:104260006795BA95C9F700976105710508959B0197
:10427000AC010A2E06945795479537952795BA9520
:10428000C9F7620F731F841F951FA01D089510E0CA
:10429000CBE7D0E004C0FE010E94EF1B2196CC3793
:0842A000D107C9F7F894FFCF24
:1042A8009D1C391DC21D00009805800000000000FB
:1042B800B7011701440104027501530167010000A9
:1042C8000000EA1162058D050000000072059705DF
:1042D800756E646566696E656400626F6F6C6561B2
:1042E8006E006E756C6C00737472696E6700617233
:1042F800726179006F626A65637400756E6B6E6FC8
:10430800776E0020686173206265656E206465665B
:10431800696E656420617320616E206576656E74D0
:10432800207769746820696E64657820000D0A003A
:1043380066616C7365007472756500752530347834
:10434800002222004D65737361676520747970657A
:10435800206E6F742061206E756D626572006C6FDF
:104368006767657200536572766F20706F73697442
:10437800696F6E206F7574206F662072616E676555
:1043880000536572766F3A20002C20706F73697441
:10439800696F6E3A200041004200430044005761B3
:1043A800746368646F6700EFBBBF00506172736924
:1043B8006E6720696E707574206661696C6564212A
:1043C800204D616C666F726D656420646174612054
:1043D80073656E74206F7220627566666572206FF1
:1043E800766572666C6F772E005F77005F64005F9A
:1043F80065006461746100436F756C64206E6F744E
:104408002066696E6420616E206576656E74206E24
:10441800616D65642027002720696E207468652017
:1044280072656769737465726564206576656E7414
:104438004E616D65730052656365697665642061D8
:104448007272617920686173206D6F72652074687B
:10445800616E203120656C656D656E7420627574BF
:104468002069747320666972737420656C656D6564
:104478006E74206973206E6F742061207374726982
:104488006E672E204D616C666F726D656420646185
:1044980074613F0052656365697665642061727274
:1044A800617920686173206F6E6C79203120656CAA
:0844B800656D656E742E0000B5
:00000001FF
